:100000000C9457010C9488010C9488010C9488017D
:100010000C9488010C9488010C9488010C9488013C
:100020000C9488010C9488010C9488010C9488012C
:100030000C9488010C9488010C9488010C9488011C
:100040000C9488010C9488010C9488010C9488010C
:100050000C9488010C9488010C9488010C94F90686
:100060000C9488010C94C3060C9499060C94880196
:100070000C9488010C9488010C9488010C948801DC
:100080000C9488010C9488010C9488010C948801CC
:100090000C9463060C9439060C9488010C94880126
:1000A0000C9488010C9488010C9488010C948801AC
:1000B0000C9488010C9488010C9488010C9488019C
:1000C0000C9488010C9488010C9488010C9488018C
:1000D0000C9488010C9488010C9488010C9488017C
:1000E0000C9488010C94E8030C9448040C940104CB
:1000F0000C9467030C9432030C9459030C94710311
:100100000C940B040C945C040C9436030C94880738
:100110000C9451020C9463030C943A030C94410325
:100120000C946D030C9420030C94ED030C94F703D2
:100130000C944B030C943E030C942F040C9401027A
:100140000C9466040C94B1010C945F030C94250488
:100150000C9413040C940F020C9455030C94470355
:100160000C94ED010C941B030C941B040C949E0244
:100170000C9439040C9452040C947A040C94DE010F
:100180000C9451030C94E0030C94700400002100C3
:10019000240027002A002D00300033000101000058
:1001A000040107010A0100002200250028002B009D
:1001B0002E003100340002010000050108010B018E
:1001C00000000A0B02090C0D0E08070304010000D1
:1001D000000000000000000000000000000000001F
:1001E00000000000000000000000000012111000DC
:1001F00000000000000000000000000000000000FF
:10020000000000000000000020002300260029005C
:100210002C002F003200000100000301060109013B
:1002200005050505070508080808020202020A0A72
:100230000808040404040101010101010101030390
:10024000030303030303040707070C0C0C0C0C0C3B
:100250000C0C0202020206060606060606060B0B38
:100260000B0B0B0B0B0B0102102020080810204079
:10027000102040800201020108040201010204086A
:1002800010204080804020100804020180040201F8
:100290008040201008040201080402010102040841
:1002A000102040800102040810204080880711249B
:1002B0001FBECFEFD1E2DEBFCDBF00E00CBF24E018
:1002C000AAE1B3E001C01D92A536B207E1F713E041
:1002D000A0E0B2E0EEEAFCE100E00BBF02C0079054
:1002E0000D92AA31B107D9F711E0C7E5D1E000E0DE
:1002F00006C021970109802FFE010E942E0CC635F1
:10030000D10780E00807A9F70E94DB070C94550E7F
:100310000C940000FC01A089B18982E08C93A48533
:10032000B5851C92A685B7858FEC8C93108EA48919
:10033000B58986E08C93A289B3898C9180618C9376
:10034000A289B3898C9188608C93A289B3898C919E
:1003500080688C930288F389E02D80818F7D808373
:100360000895AF92BF92CF92DF92EF92FF920F93D8
:100370001F93CF93DF936C017B018B01040F151F3B
:10038000EB015E01AE18BF08C017D10759F06991A3
:10039000D601ED91FC910190F081E02DC6011995F7
:1003A000892B79F7C501DF91CF911F910F91FF90B4
:1003B000EF90DF90CF90BF90AF900895FC01538DE8
:1003C000448D252F30E0842F90E0821B930B54172F
:1003D00010F0CF96089501970895FC01918D828DBC
:1003E000981761F0A28DAE0FBF2FB11D5D968C9155
:1003F000928D9F5F9F73928F90E008958FEF9FEF94
:100400000895FC01918D828D981731F0828DE80F4F
:10041000F11D858D90E008958FEF9FEF0895FC0109
:10042000918D228D892F90E0805C9F4F821B9109D6
:100430008F739927089587E293E00E940F0221E0CD
:10044000892B09F420E0822F089584EC93E00E9428
:100450000F0221E0892B09F420E0822F0895FC018E
:10046000A48DA80FB92FB11DA35ABF4F2C91848D15
:1004700090E001968F739927848FA689B7892C9372
:10048000A089B1898C91837080648C93938D848DC5
:10049000981306C00288F389E02D80818F7D8083C8
:1004A0000895EF92FF920F931F93CF93DF93EC0188
:1004B00081E0888F9B8D8C8D98131AC0E889F9890B
:1004C000808185FF15C09FB7F894EE89FF8960830E
:1004D000E889F98980818370806480839FBF81E08F
:1004E00090E0DF91CF911F910F91FF90EF900895D1
:1004F000F62E0B8D10E00F5F1F4F0F731127E02EAC
:100500008C8D8E110CC00FB607FCFACFE889F989E3
:10051000808185FFF5CFCE010E942F02F1CFEB8DB8
:10052000EC0FFD2FF11DE35AFF4FF0829FB7F894B7
:100530000B8FEA89FB8980818062CFCFCF93DF93D5
:10054000EC01888D8823B9F0AA89BB89E889F989EB
:100550008C9185FD03C0808186FD0DC00FB607FC20
:10056000F7CF8C9185FFF2CF808185FFEDCFCE0153
:100570000E942F02E9CFDF91CF91089580E090E0B3
:10058000892B29F00E94250281110E94000080E041
:1005900090E0892B29F00E941B0281110E9400002B
:1005A00080E090E0892B49F080E090E0892B29F0F1
:1005B0000E94000081110E94000080E090E0892BE1
:1005C00049F080E090E0892B29F00E940000811121
:1005D0000C9400000895282F30E0F901E054FE4FFC
:1005E0009491F901EA59FD4F4491205E3D4FF90184
:1005F0002491222309F435C0992311F191509231AD
:10060000F8F4E92FF0E08827E75FFC4F8F4F0C9458
:100610002E0C3A033E031B0332033603200341032F
:1006200047034B035103550359035F03630320033F
:1006300067036D037103809180008F778093800042
:10064000E22FF0E0EE0FFF1FEA55FE4FA591B491A7
:100650008FB7F894EC91611148C040954E234C93AC
:100660008FBF0895809180008F7DE8CF80918000BA
:10067000877FE4CF84B58F7784BDE2CF84B58F7D4B
:10068000FBCF8091B0008F778093B000D9CF80915D
:10069000B0008F7DF9CF809190008F77809390008C
:1006A000CFCF809190008F7DF9CF80919000877F90
:1006B000F5CF8091A0008F778093A000C1CF80916B
:1006C000A0008F7DF9CF8091A000877FF5CF80912A
:1006D00020018F7780932001B3CF809120018F7DFF
:1006E000F9CF80912001877FF5CF4E2BB8CFCF93E4
:1006F000DF9390E0FC01EA59FD4F2491805E9D4F0D
:10070000FC0184918823D1F090E0880F991FFC01AF
:10071000E457FE4FA591B491FC01EA55FE4FC591F7
:10072000D49161110EC09FB7F8948C91E22FE0959F
:100730008E238C932881E223E8839FBFDF91CF91A2
:1007400008958FB7F894EC91E22BEC938FBFF6CF1E
:100750001F93CF93DF93182FEB0161E00E94770383
:10076000209739F460E0812FDF91CF911F910C9495
:10077000EB02CF3FD10511F461E0F5CFE12FF0E0BE
:10078000E054FE4FE491E150E23108F0B3C0F0E0F4
:100790008827E253FC4F8F4F0C942E0CE003E803A4
:1007A000ED03F70301047A040B0413041B0425046E
:1007B0002F043904480452047A045C04660470046B
:1007C00084B5806884BDC7BDDF91CF911F91089526
:1007D00084B5806284BDC8BDF7CF809180008068F9
:1007E00080938000D0938900C0938800EDCF8091E2
:1007F0008000806280938000D0938B00C0938A0039
:10080000E3CF80918000886080938000D0938D003A
:10081000C0938C00D9CF8091B00080688093B000E5
:10082000C093B300D1CF8091B00080628093B000BC
:10083000C093B400C9CF80919000806880939000ED
:10084000D0939900C0939800BFCF809190008062B0
:1008500080939000D0939B00C0939A00B5CF809175
:100860009000886080939000D0939D00C0939C007E
:10087000ABCF8091A00080688093A0008091A00001
:100880008F7B8093A000D093A900C093A8009CCF39
:100890008091A00080628093A000D093AB00C093B1
:1008A000AA0092CF8091A00088608093A000D0938E
:1008B000AD00C093AC0088CF809120018068809308
:1008C0002001D0932901C09328017ECF809120017F
:1008D000806280932001D0932B01C0932A0174CFB2
:1008E00080912001886080932001D0932D01C093D6
:1008F0002C016ACFC038D1050CF03ECF33CF3FB7C3
:10090000F89480911F0390912003A0912103B0914E
:10091000220326B5A89B05C02F3F19F00196A11D03
:10092000B11D3FBFBA2FA92F982F8827BC01CD0139
:10093000620F711D811D911D42E0660F771F881F98
:10094000991F4A95D1F708958F929F92AF92BF92C7
:10095000CF92DF92EF92FF924B015C010E947F04E5
:100960006B017C010E947F046C197D098E099F092F
:10097000683E734081059105A8F321E0821A910831
:10098000A108B10888EEC80E83E0D81EE11CF11C56
:1009900081149104A104B10429F7FF90EF90DF9036
:1009A000CF90BF90AF909F908F900895FB010190E2
:1009B0000020E9F73197AF01461B570B0C94B101AA
:1009C0008F929F92AF92BF920F931F93CF93DF931B
:1009D000CDB7DEB7A1970FB6F894DEBF0FBECDBF7F
:1009E00019A2423008F44AE08E010F5D1F4F842E99
:1009F000912CB12CA12CA50194010E940C0CE62F86
:100A0000B901CA01EA3004F5E05DD801EE938D0129
:100A1000232B242B252B79F790E080E0109729F0E9
:100A2000BD0187E293E00E94D604A1960FB6F89428
:100A3000DEBF0FBECDBFDF91CF911F910F91BF9051
:100A4000AF909F908F900895E95CDFCF0F931F9335
:100A5000CF93DF93EC010E94D6048C016AE172E02F
:100A6000CE010E94D604800F911FDF91CF911F917C
:100A70000F910895109201021092000260E088E048
:100A80000E94EB0260E089E10E94EB0260E087E1F6
:100A90000E94EB0260E08BE00E94EB0260E08AE0E3
:100AA0000E94EB0260E089E00E94EB026DE172E0DF
:100AB00087E293E00E9426056DE172E084EC93E00A
:100AC0000C9426050F931F93CF93DF93EC01FB014A
:100AD00044815581608171810E94B1018C016AE17C
:100AE00072E0CE010E94D604800F911FDF91CF915A
:100AF0001F910F910895CF92DF92EF92FF92CF93C3
:100B0000DF93EB01FC01448155816081718187E2B3
:100B100093E00E94B101C0900002D09001020D2C20
:100B2000000CEE08FF084AE0C701B601F7FE0DC051
:100B30006DE287E293E00E94510266277727CB019E
:100B40006C197D098E099F094AE00E94E00466E263
:100B500072E087E293E00E942605BE0184EC93E0F8
:100B6000DF91CF91FF90EF90DF90CF900C946205D2
:100B7000FC0124813581232B39F421E0FB018081A4
:100B8000882349F020E007C0808191810E94450EB2
:100B900021E0892BB9F7822F08950F931F93CF93EC
:100BA000DF93EC0188819981009759F02A813B817C
:100BB0002617370730F081E0DF91CF911F910F9119
:100BC00008958B016F5F7F4F0E945B0D009759F076
:100BD000998388831B830A832C813D81232B59F7BA
:100BE000FC011082E8CF80E0E7CFFC018081918199
:100BF000009711F00C94D20C0895EF92FF920F938E
:100C00001F93CF93DF93EC017B01198218821B8223
:100C10001A821D821C82FB0101900020E9F73197A6
:100C20008F01061B170BB8010E94CD052881398161
:100C3000811113C02115310519F0C9010E94D20C90
:100C4000198218821D821C821B821A82DF91CF9129
:100C50001F910F91FF90EF9008951D830C83B701B2
:100C6000C901DF91CF911F910F91FF90EF900C94EC
:100C70004E0E1F920F920FB60F9211240BB60F92C9
:100C80002F933F934F935F936F937F938F939F9394
:100C9000AF93BF93EF93FF9387E293E00E942F02FD
:100CA000FF91EF91BF91AF919F918F917F916F9144
:100CB0005F914F913F912F910F900BBE0F900FBE00
:100CC0000F901F9018951F920F920FB60F9211243C
:100CD0000BB60F922F938F939F93EF93FF93E09117
:100CE0003703F09138038081E0913D03F0913E039A
:100CF00082FD1DC09081809140038F5F8F73209192
:100D00004103821741F0E0914003F0E0E95DFC4FC0
:100D1000958F80934003FF91EF919F918F912F9139
:100D20000F900BBE0F900FBE0F901F9018958081F3
:100D3000F2CF1F920F920FB60F9211240BB60F92A3
:100D40002F933F934F935F936F937F938F939F93D3
:100D5000AF93BF93EF93FF9384EC93E00E942F0235
:100D6000FF91EF91BF91AF919F918F917F916F9183
:100D70005F914F913F912F910F900BBE0F900FBE3F
:100D80000F901F9018951F920F920FB60F9211247B
:100D90000BB60F922F938F939F93EF93FF93E09156
:100DA000D403F091D5038081E091DA03F091DB0365
:100DB00082FD1DC090818091DD038F5F8F73209134
:100DC000DE03821741F0E091DD03F0E0EC53FC4FCD
:100DD000958F8093DD03FF91EF919F918F912F91DC
:100DE0000F900BBE0F900FBE0F901F901895808133
:100DF000F2CF1F920F920FB60F9211242F933F93B1
:100E00008F939F93AF93BF9380911B0390911C038B
:100E1000A0911D03B0911E0330911A0323E0230F0C
:100E20002D3758F50196A11DB11D20931A0380930B
:100E30001B0390931C03A0931D03B0931E0380918A
:100E40001F0390912003A0912103B09122030196EA
:100E5000A11DB11D80931F0390932003A093210334
:100E6000B0932203BF91AF919F918F913F912F91AA
:100E70000F900FBE0F901F90189526E8230F029633
:100E8000A11DB11DD2CFCF92DF92EF92FF920F93AF
:100E90001F93E82FF92F05C00150110921093109CD
:100EA00061F1908196239417B9F305C0015011099F
:100EB0002109310911F1908196239413F7CFC12CA8
:100EC000D12CE12CF12C0AC08FEFC81AD80AE80AFD
:100ED000F80A0C151D052E053F0579F08081862343
:100EE000841791F36C2D7D2D8E2D9F2D1F910F91C9
:100EF000FF90EF90DF90CF90089560E070E080E089
:100F000090E01F910F91FF90EF90DF90CF900895A8
:100F1000E7E2F3E01382128248EE53E060E070E013
:100F200044835583668377838CE092E0918380834A
:100F30002DEC30E0358724872CEC30E0378726878E
:100F400028EC30E0318B208B29EC30E0338B228B86
:100F50002AEC30E0358B248B2EEC30E0378B268B5F
:100F6000118E128E138E148EE4ECF3E01382128233
:100F700044835583668377839183808385EC90E0F7
:100F80009587848784EC90E09787868780EC90E053
:100F9000918B808B81EC90E0938B828B82EC90E044
:100FA000958B848B86EC90E0978B868B118E128EBE
:100FB000138E148E0895CF93DF93CDB7DEB762976B
:100FC0000FB6F894DEBF0FBECDBF789484B58260B3
:100FD00084BD84B5816084BD85B5826085BD85B5DD
:100FE000816085BD80916E00816080936E0010925B
:100FF00081008091810082608093810080918100D6
:101000008160809381008091800081608093800066
:101010008091B10084608093B1008091B0008160C4
:101020008093B000809191008260809391008091C4
:101030009100816080939100809190008160809305
:1010400090008091A10082608093A1008091A10016
:1010500081608093A1008091A00081608093A000B6
:101060008091210182608093210180912101816022
:1010700080932101809120018160809320018091E3
:101080007A00846080937A0080917A0082608093F5
:101090007A0080917A00816080937A0080917A0052
:1010A000806880937A001092C10084EC93E00E94E3
:1010B0008A0187E293E00E948A0161E082E00E9457
:1010C000770361E083E00E94770361E084E00E949F
:1010D000770361E085E00E94770361E086E00E948B
:1010E000770361E087E00E94770361E088E00E9477
:1010F000770361E089E00E94770361E08AE00E9463
:10110000770361E08BE00E94770361E087E10E9452
:10111000770361E089E10E9477039BE0692E712CDF
:1011200023E2822E912C32E7232E32E0332E4CE242
:10113000442E42E0542E56E9A52EB12C61E08DE0FC
:101140000E94770360E08DE00E94EB02C3010197EB
:10115000F1F761E08DE00E94EB02C4010197F1F725
:1011600060E08DE00E94EB0260E08CE00E9477037B
:10117000F1016491F2018491E82FF0E0EE0FFF1F7E
:10118000EA5FFD4F8591949100E412E42FE030E096
:10119000462F0E944307611571058105910529F0CD
:1011A0006F5F7F4F8F4F9F4F9F700E94DB0A23E23C
:1011B00036E44CE85CE30E94180B0E94D60B6B01EE
:1011C0007C01C0922303D0922403E0922503F09285
:1011D00026036BE470E080E090E00E94A404F3E05A
:1011E000CF16D104BCF40E943A056BE272E084ECA5
:1011F00093E00E9426056BE272E087E293E00E9492
:10120000260564EF71E080E090E00E94A4040E9453
:10121000BE0294CF6CE172E0CE010D960E94FD05F6
:1012200084EC93E00E940F0218161906FCF484EC7B
:1012300093E00E94ED0189831A8209891A890F5F60
:101240001F4FB801CE010D960E94CD05882341F3B2
:101250002D853E8589899A89BE016F5F7F4F820FF8
:10126000931F0E944E0E1A8B098BDACF6CE172E04D
:10127000CE010D960E94B805811169C0BE01635F61
:101280007F4F87E293E00E9462056EE372E0CE0139
:101290000D960E94B805882309F473C0809100025E
:1012A00090910102892B21F4B0920102A0920002D8
:1012B0000091000210910102B80189E00E94A80388
:1012C000B8018AE00E94A803B8018BE00E94A8033D
:1012D00061E088E00E94EB0261E089E10E94EB029C
:1012E00061E087E10E94EB0261E082E00E94EB0294
:1012F00060E083E00E94EB0261E084E00E94EB0288
:1013000060E085E00E94EB0261E086E00E94EB0273
:1013100060E087E00E94EB0260E472E0CE0101969B
:101320000E94FD056AE472E0CE0107960E94FD0569
:10133000BE016F5F7F4FCE0107960E947B05CE01F5
:1013400007960E94F505CE0101960E94F50562E31D
:1013500070E080E090E00E94A404CE010D960E940F
:10136000F5056AE073E087E293E00E94D604B601D7
:10137000DD0C880B990B4AE00E94E00466E173E003
:101380003CCF68E672E0CE010D960E94B805882336
:10139000E9F10091000210910102B80189E00E9478
:1013A000A803B8018AE00E94A803B8018BE00E945C
:1013B000A80361E089E10E94EB0261E087E10E94FD
:1013C000EB0261E088E00E94EB0260E082E00E94B4
:1013D000EB0261E083E00E94EB0260E084E00E94A7
:1013E000EB0261E085E00E94EB0260E086E00E9493
:1013F000EB0261E087E00E94EB026AE672E0CE0158
:1014000001960E94FD0568E772E08ECF68E872E001
:10141000CE010D960E94B805882329F100910002A3
:1014200010910102B8018BE00E94A803B8018AE084
:101430000E94A80360E089E00E94EB0261E089E17C
:101440000E94EB0260E087E10E94EB0261E088E02D
:101450000E94EB026AE872E0CE0101960E94FD054F
:1014600064E972E061CF69EA72E0CE010D960E94F4
:10147000B805882329F10091000210910102B801FA
:101480008BE00E94A80360E08AE00E94EB02B801B2
:1014900089E00E94A80360E089E10E94EB0261E01C
:1014A00087E10E94EB0261E088E00E94EB026BEAB8
:1014B00072E0CE0101960E94FD0563EB72E034CF2D
:1014C00066EC72E0CE010D960E94B805882381F18A
:1014D00000910002109101020F3F110509F0FCF488
:1014E0001093010200930002B80189E00E94A80352
:1014F000B8018AE00E94A803B8018BE00E94A8030B
:1015000061E089E10E94EB0261E087E10E94EB0269
:1015100061E088E00E94EB020F5F1F4FDDCF68ECB7
:1015200072E0CE0101960E94FD0567ED72E0FCCEEF
:1015300067EE72E0CE010D960E94B805882379F11E
:10154000009100021091010202331105FCF010938A
:10155000010200930002B80189E00E94A803B801CB
:101560008AE00E94A803B8018BE00E94A80361E012
:1015700089E10E94EB0261E087E10E94EB0261E0F9
:1015800088E00E94EB0201501109DECF69EE72E0A3
:10159000CE0101960E94FD0568EF72E0C5CE68E0BD
:1015A00073E0CE010D960E94B805882309F4CFCED2
:1015B0000E943A05CCCEE89409C097FB3EF4909582
:1015C0008095709561957F4F8F4F9F4F9923A9F01C
:1015D000F92F96E9BB279395F695879577956795AB
:1015E000B795F111F8CFFAF4BB0F11F460FF1BC0EF
:1015F0006F5F7F4F8F4F9F4F16C0882311F096E982
:1016000011C0772321F09EE8872F762F05C066232F
:1016100071F096E8862F70E060E02AF09A95660FE8
:10162000771F881FDAF7880F9695879597F90895A1
:101630000E942B0B0C949C0B0E948E0B38F00E9486
:10164000950B20F0952311F00C94850B0C948B0BCB
:1016500011240C94D00B0E94AD0B70F3959FC1F335
:10166000950F50E0551F629FF001729FBB27F00D50
:10167000B11D639FAA27F00DB11DAA1F649F6627A5
:10168000B00DA11D661F829F2227B00DA11D621FF4
:10169000739FB00DA11D621F839FA00D611D221FAE
:1016A000749F3327A00D611D231F849F600D211D92
:1016B000822F762F6A2F11249F5750409AF0F1F015
:1016C00088234AF0EE0FFF1FBB1F661F771F881F7E
:1016D00091505040A9F79E3F510580F00C94850B26
:1016E0000C94D00B5F3FE4F3983ED4F38695779546
:1016F0006795B795F795E7959F5FC1F7FE2B880F24
:10170000911D9695879597F9089597F99F6780E8B9
:1017100070E060E008959FEF80EC089500240A9443
:101720001616170618060906089500240A941216BC
:101730001306140605060895092E0394000C11F4EF
:10174000882352F0BB0F40F4BF2B11F460FF04C09C
:101750006F5F7F4F8F4F9F4F089557FD9058440FF5
:10176000551F59F05F3F71F04795880F97FB991F00
:1017700061F09F3F79F087950895121613061406BD
:10178000551FF2CF4695F1DF08C01616170618064A
:10179000991FF1CF86957105610508940895E89425
:1017A000BB2766277727CB0197F908950E94DD0BA9
:1017B0006894B1110C94D00B08950E94B50B88F079
:1017C0009F5798F0B92F9927B751B0F0E1F0660F05
:1017D000771F881F991F1AF0BA95C9F714C0B13046
:1017E00091F00E94CF0BB1E008950C94CF0B672FBE
:1017F000782F8827B85F39F0B93FCCF38695779575
:101800006795B395D9F73EF490958095709561955D
:101810007F4F8F4F9F4F0895A1E21A2EAA1BBB1B2B
:10182000FD010DC0AA1FBB1FEE1FFF1FA217B307AC
:10183000E407F50720F0A21BB30BE40BF50B661FC2
:10184000771F881F991F1A9469F760957095809586
:1018500090959B01AC01BD01CF010895EE0FFF1FD4
:10186000881F8BBF0790F691E02D19940F931F935B
:10187000CF93DF938230910510F482E090E0E09105
:101880006304F091640430E020E0B0E0A0E0309721
:1018900099F42115310509F44AC0281B390B24306D
:1018A0003105D8F58A819B816115710589F1FB01AC
:1018B00093838283FE0111C0408151810281138193
:1018C00048175907E0F04817590799F4109761F045
:1018D00012960C93129713961C933296CF01DF91B8
:1018E000CF911F910F9108950093630410936404A6
:1018F000F4CF2115310551F04217530738F0A901F3
:10190000DB019A01BD01DF01F801C1CFEF01F9CF81
:101910009093640480936304CDCFFE01E20FF31F24
:10192000819391932250310939832883D7CF209115
:10193000610430916204232B41F420910402309120
:1019400005023093620420936104209102023091D9
:1019500003022115310541F42DB73EB7409106022F
:1019600050910702241B350BE0916104F091620451
:10197000E217F307A0F42E1B3F0B2817390778F066
:10198000AC014E5F5F4F2417350748F04E0F5F1FC5
:101990005093620440936104819391939FCFF0E050
:1019A000E0E09CCFCF93DF930097E9F0FC01329702
:1019B00013821282A0916304B0916404ED0130E0BF
:1019C00020E01097A1F420813181820F931F209194
:1019D0006104309162042817390709F061C0F0935F
:1019E0006204E0936104DF91CF910895EA01CE177C
:1019F000DF07E8F54A815B819E0141155105B1F78A
:101A0000E901FB83EA8349915991C40FD51FEC1773
:101A1000FD0761F4808191810296840F951FE90191
:101A200099838883828193819B838A83F0E0E0E0BD
:101A300012968D919C9113970097B9F52D913C9139
:101A40001197CD010296820F931F2091610430916E
:101A500062042817390739F6309751F5109264045B
:101A600010926304B0936204A0936104BCCFD3834B
:101A7000C28340815181840F951FC817D90761F433
:101A80004E5F5F4F88819981480F591F5183408372
:101A90008A819B81938382832115310509F0B0CF20
:101AA000F0936404E09363049ECFFD01DC01C0CF9A
:101AB00013821282D7CF4F925F926F927F928F9252
:101AC0009F92AF92BF92CF92DF92EF92FF920F93CD
:101AD0001F93CF93DF938C01009799F4CB01DF9193
:101AE000CF911F910F91FF90EF90DF90CF90BF901B
:101AF000AF909F908F907F906F905F904F900C94DD
:101B0000360CFC01E60FF71F9C0122503109E21749
:101B1000F30708F4AEC0D901CD91DC911197C61737
:101B2000D70720F1C530D10578F0CE01049786178C
:101B3000970750F0C61BD70B2297C193D1936D9393
:101B40007C93CF010E94D20CC801DF91CF911F91ED
:101B50000F91FF90EF90DF90CF90BF90AF909F904C
:101B60008F907F906F905F904F9008955B01AC1ABB
:101B7000BD0A4C018C0E9D1EA0916304B0916404BB
:101B8000512C412CF12CE12C109731F580916104FE
:101B9000909162048815990509F05CC046165706B5
:101BA00008F058C08091020290910302009741F41E
:101BB0008DB79EB74091060250910702841B950B8A
:101BC000E817F90708F055C0F0936204E093610448
:101BD000F90171836083B8CF8D919C911197129612
:101BE0006C90129713967C901397A815B90559F528
:101BF0006C0142E0C40ED11CCA14DB0420F1AC011C
:101C00004A195B09DA011296159780F06282738295
:101C100051834083D9016D937C93E114F10471F0F9
:101C2000D7011396FC93EE9312978ECF22968C0FCA
:101C30009D1FF90191838083F301EFCFF09364043A
:101C4000E093630481CF4816590608F42C017D0106
:101C5000D3019ACFCB010E94360C7C01009749F04A
:101C6000AE01B8010E943C0EC8010E94D20C87014F
:101C70006BCF10E000E068CFFB01DC0102C00190F7
:101C80000D9241505040D8F70895FB01DC018D9131
:101C9000019080190110D9F3990B0895FB01DC0123
:0E1CA00001900D920020E1F70895F894FFCF17
:101CAE009600000065048000000000005102B101A2
:101CBE00DE019E020F02ED0101020D0A0044657461
:101CCE00656E69646F002070776D004C6C65676F90
:101CDE002061206C61206D6574612121210031002D
:101CEE004176616E7A616E646F004176616E7A61E3
:101CFE006E646F2076656C6F6369646164206163E6
:101D0E007475616C3A2020003200526574726F63F4
:101D1E00656469656E646F00526574726F636564A5
:101D2E0069656E646F2020003300497A71756965AC
:101D3E00726461004176616E7A616E646F20697AB9
:101D4E007175696572646120003400446572656363
:101D5E006861004176616E7A616E646F20646572AF
:101D6E00656368612000350056656C6F6369646158
:101D7E006420616C74610056656C6F6369646164A4
:101D8E0020616C74612000360056656C6F63696467
:101D9E0061642062616A610056656C6F636964619B
:101DAE00642062616A612000370044697374616E59
:0A1DBE006369613A200020636D00A4
:00000001FF
