:100000000C9457010C9488010C9488010C9488017D
:100010000C9488010C9488010C9488010C9488013C
:100020000C9488010C9488010C9488010C9488012C
:100030000C9488010C9488010C9488010C9488011C
:100040000C9488010C9488010C9488010C9488010C
:100050000C9488010C9488010C9488010C947E08FF
:100060000C9488010C9448080C941E080C94880188
:100070000C9488010C9488010C9488010C948801DC
:100080000C9488010C9488010C9488010C948801CC
:100090000C94E8070C94BE070C9488010C9488011A
:1000A0000C9488010C9488010C9488010C948801AC
:1000B0000C9488010C9488010C9488010C9488019C
:1000C0000C9488010C9488010C9488010C9488018C
:1000D0000C9488010C9488010C9488010C9488017C
:1000E0000C9488010C94B1010C9452040C943203CA
:1000F0000C94ED010C9451020C9401040C94E8034F
:100100000C9436030C942F040C9470040C94550337
:100110000C94DE010C940F020C94ED030C940B0470
:100120000C9441030C945F030C9467030C941B0420
:100130000C94E0030C940D090C9471030C943E0391
:100140000C9451030C9447030C9466040C94F7032D
:100150000C9420030C946D030C945C040C946303C6
:100160000C943A030C9401020C947A040C944B0303
:100170000C9439040C949E020C9448040C942504AD
:100180000C9459030C941B030C94130400002100DD
:10019000240027002A002D00300033000101000058
:1001A000040107010A0100002200250028002B009D
:1001B0002E003100340002010000050108010B018E
:1001C00000000A0B02090C0D0E08070304010000D1
:1001D000000000000000000000000000000000001F
:1001E00000000000000000000000000012111000DC
:1001F00000000000000000000000000000000000FF
:10020000000000000000000020002300260029005C
:100210002C002F003200000100000301060109013B
:1002200005050505070508080808020202020A0A72
:100230000808040404040101010101010101030390
:10024000030303030303040707070C0C0C0C0C0C3B
:100250000C0C0202020206060606060606060B0B38
:100260000B0B0B0B0B0B0102102020080810204079
:10027000102040800201020108040201010204086A
:1002800010204080804020100804020180040201F8
:100290008040201008040201080402010102040841
:1002A0001020408001020408102040800D09112414
:1002B0001FBECFEFD1E2DEBFCDBF00E00CBF24E018
:1002C000A2EDB2E001C01D92AD31B207E1F712E03C
:1002D000A0E0B2E0EAE1FCE100E00BBF02C0079061
:1002E0000D92A23DB107D9F711E0C7E5D1E000E0DA
:1002F00006C021970109802FFE010E94E40BC6353C
:10030000D10780E00807A9F70E9460090C940B0E42
:100310000C940000FC01A089B18982E08C93A48533
:10032000B5851C92A685B7858FEC8C93108EA48919
:10033000B58986E08C93A289B3898C9180618C9376
:10034000A289B3898C9188608C93A289B3898C919E
:1003500080688C930288F389E02D80818F7D808373
:100360000895AF92BF92CF92DF92EF92FF920F93D8
:100370001F93CF93DF936C017B018B01040F151F3B
:10038000EB015E01AE18BF08C017D10759F06991A3
:10039000D601ED91FC910190F081E02DC6011995F7
:1003A000892B79F7C501DF91CF911F910F91FF90B4
:1003B000EF90DF90CF90BF90AF900895FC01538DE8
:1003C000448D252F30E0842F90E0821B930B54172F
:1003D00010F0CF96089501970895FC01918D828DBC
:1003E000981761F0A28DAE0FBF2FB11D5D968C9155
:1003F000928D9F5F9F73928F90E008958FEF9FEF94
:100400000895FC01918D828D981731F0828DE80F4F
:10041000F11D858D90E008958FEF9FEF0895FC0109
:10042000918D228D892F90E0805C9F4F821B9109D6
:100430008F73992708958FED92E00E940F0221E0BB
:10044000892B09F420E0822F08958CE793E00E9425
:100450000F0221E0892B09F420E0822F0895FC018E
:10046000A48DA80FB92FB11DA35ABF4F2C91848D15
:1004700090E001968F739927848FA689B7892C9372
:10048000A089B1898C91837080648C93938D848DC5
:10049000981306C00288F389E02D80818F7D8083C8
:1004A0000895EF92FF920F931F93CF93DF93EC0188
:1004B00081E0888F9B8D8C8D98131AC0E889F9890B
:1004C000808185FF15C09FB7F894EE89FF8960830E
:1004D000E889F98980818370806480839FBF81E08F
:1004E00090E0DF91CF911F910F91FF90EF900895D1
:1004F000F62E0B8D10E00F5F1F4F0F731127E02EAC
:100500008C8D8E110CC00FB607FCFACFE889F989E3
:10051000808185FFF5CFCE010E942F02F1CFEB8DB8
:10052000EC0FFD2FF11DE35AFF4FF0829FB7F894B7
:100530000B8FEA89FB8980818062CFCFCF93DF93D5
:10054000EC01888D8823B9F0AA89BB89E889F989EB
:100550008C9185FD03C0808186FD0DC00FB607FC20
:10056000F7CF8C9185FFF2CF808185FFEDCFCE0153
:100570000E942F02E9CFDF91CF91089580E090E0B3
:10058000892B29F00E94250281110E94000080E041
:1005900090E0892B29F00E941B0281110E9400002B
:1005A00080E090E0892B49F080E090E0892B29F0F1
:1005B0000E94000081110E94000080E090E0892BE1
:1005C00049F080E090E0892B29F00E940000811121
:1005D0000C9400000895282F30E0F901E054FE4FFC
:1005E0009491F901EA59FD4F4491205E3D4FF90184
:1005F0002491222309F435C0992311F191509231AD
:10060000F8F4E92FF0E08827E75FFC4F8F4F0C9458
:10061000E40B3A033E031B0332033603200341037A
:1006200047034B035103550359035F03630320033F
:1006300067036D037103809180008F778093800042
:10064000E22FF0E0EE0FFF1FEA55FE4FA591B491A7
:100650008FB7F894EC91611148C040954E234C93AC
:100660008FBF0895809180008F7DE8CF80918000BA
:10067000877FE4CF84B58F7784BDE2CF84B58F7D4B
:10068000FBCF8091B0008F778093B000D9CF80915D
:10069000B0008F7DF9CF809190008F77809390008C
:1006A000CFCF809190008F7DF9CF80919000877F90
:1006B000F5CF8091A0008F778093A000C1CF80916B
:1006C000A0008F7DF9CF8091A000877FF5CF80912A
:1006D00020018F7780932001B3CF809120018F7DFF
:1006E000F9CF80912001877FF5CF4E2BB8CFCF93E4
:1006F000DF9390E0FC01EA59FD4F2491805E9D4F0D
:10070000FC0184918823D1F090E0880F991FFC01AF
:10071000E457FE4FA591B491FC01EA55FE4FC591F7
:10072000D49161110EC09FB7F8948C91E22FE0959F
:100730008E238C932881E223E8839FBFDF91CF91A2
:1007400008958FB7F894EC91E22BEC938FBFF6CF1E
:100750001F93CF93DF93182FEB0161E00E94770383
:10076000209739F460E0812FDF91CF911F910C9495
:10077000EB02CF3FD10511F461E0F5CFE12FF0E0BE
:10078000E054FE4FE491E150E23108F0B3C0F0E0F4
:100790008827E253FC4F8F4F0C94E40BE003E803EF
:1007A000ED03F70301047A040B0413041B0425046E
:1007B0002F043904480452047A045C04660470046B
:1007C00084B5806884BDC7BDDF91CF911F91089526
:1007D00084B5806284BDC8BDF7CF809180008068F9
:1007E00080938000D0938900C0938800EDCF8091E2
:1007F0008000806280938000D0938B00C0938A0039
:10080000E3CF80918000886080938000D0938D003A
:10081000C0938C00D9CF8091B00080688093B000E5
:10082000C093B300D1CF8091B00080628093B000BC
:10083000C093B400C9CF80919000806880939000ED
:10084000D0939900C0939800BFCF809190008062B0
:1008500080939000D0939B00C0939A00B5CF809175
:100860009000886080939000D0939D00C0939C007E
:10087000ABCF8091A00080688093A0008091A00001
:100880008F7B8093A000D093A900C093A8009CCF39
:100890008091A00080628093A000D093AB00C093B1
:1008A000AA0092CF8091A00088608093A000D0938E
:1008B000AD00C093AC0088CF809120018068809308
:1008C0002001D0932901C09328017ECF809120017F
:1008D000806280932001D0932B01C0932A0174CFB2
:1008E00080912001886080932001D0932D01C093D6
:1008F0002C016ACFC038D1050CF03ECF33CF3FB7C3
:10090000F8948091D7029091D802A091D902B09129
:10091000DA0226B5A89B05C02F3F19F00196A11D4C
:10092000B11D3FBFBA2FA92F982F8827BC01CD0139
:10093000620F711D811D911D42E0660F771F881F98
:10094000991F4A95D1F708958F929F92AF92BF92C7
:10095000CF92DF92EF92FF924B015C010E947F04E5
:100960006B017C010E947F046C197D098E099F092F
:10097000683E734081059105A8F321E0821A910831
:10098000A108B10888EEC80E83E0D81EE11CF11C56
:1009900081149104A104B10429F7FF90EF90DF9036
:1009A000CF90BF90AF909F908F900895FB010190E2
:1009B0000020E9F73197AF01461B570B0C94B101AA
:1009C0000F931F93CF93DF93EC010E94D6048C0109
:1009D0006AE172E0CE010E94D604800F911FDF9180
:1009E000CF911F910F91089560E088E00E94EB0283
:1009F00060E089E10E94EB0260E087E10E94EB0287
:100A000060E08BE00E94EB0260E08AE00E94EB0273
:100A100060E089E00E94EB026DE172E08FED92E010
:100A20000C94E0048F929F92AF92BF92CF92DF928C
:100A3000EF92FF920F931F93CF93DF93CDB7DEB763
:100A4000A1970FB6F894DEBF0FBECDBF6C01990F12
:100A5000EE08FF08F7FE43C06DE28FED92E00E94C2
:100A600051028C0122273327A9012C193D094E0977
:100A70005F0919A2CE0181967C019AE0892E912C02
:100A8000A12CB12CCA01B901A50194010E94C20B8D
:100A9000605DF70162937F01211531054105510524
:100AA00089F790E080E0309729F0BF018FED92E068
:100AB0000E94D604800F911FA1960FB6F894DEBF56
:100AC0000FBECDBFDF91CF911F910F91FF90EF909F
:100AD000DF90CF90BF90AF909F908F900895A70127
:100AE000960119A28E010F5D1F4F8AE0C82ED12CEE
:100AF000E12CF12CCA01B901A70196010E94C20B99
:100B0000605DF80162938F012115310541055105A2
:100B100089F790E080E0309779F2BF018FED92E0A5
:100B20000E94D604C9CFFC0124813581232B39F4DE
:100B300021E0FB018081882349F020E007C080810B
:100B400091810E94FB0D21E0892BB9F7822F089536
:100B50000F931F93CF93DF93EC01888199810097C6
:100B600059F02A813B812617370730F081E0DF9169
:100B7000CF911F910F9108958B016F5F7F4F0E945E
:100B8000110D009759F0998388831B830A832C8168
:100B90003D81232B59F7FC011082E8CF80E0E7CF9D
:100BA0000F931F93CF93DF9300D000D01F921F921B
:100BB000CDB7DEB71A8219821C821B821E821D826B
:100BC00070E060E0CE0101960E94A80529813A817B
:100BD000811132C02115310519F0C9010E94880C1C
:100BE0001A8219821E821D821C821B828CE793E06E
:100BF0000E940F02181619063CF58CE793E00E943C
:100C0000ED018F8318860D811E810F5F1F4FB80184
:100C1000CE0101960E94A805882341F329813A81DB
:100C20008D819E81BE01695F7F4F820F931F0E945D
:100C3000040E1E830D83DACF1E821D826CE172E0EA
:100C4000C9010E94040ED2CF6CE172E0CE01019680
:100C50000E94930581115DC04D815E8169817A8119
:100C60008FED92E00E94B1016AE172E08FED92E0B7
:100C70000E94D60466E272E0CE0101960E949305BE
:100C8000882309F45DC00091000210910102B801AF
:100C900089E00E94A803B8018AE00E94A803B80175
:100CA0008BE00E94A80361E088E00E94EB0261E013
:100CB00089E10E94EB0261E087E10E94EB0261E0C2
:100CC00082E00E94EB0260E083E00E94EB0261E0C0
:100CD00084E00E94EB0260E085E00E94EB0261E0AC
:100CE00086E00E94EB0260E087E00E94EB0268E28F
:100CF00072E08FED92E00E94D60480910002909104
:100D000001020E94120566E472E08FED92E00E94FB
:100D1000E00462E370E080E090E00E94A404898136
:100D20009A81009711F00E94880C28960FB6F894CB
:100D3000DEBF0FBECDBFDF91CF911F910F91089500
:100D40006BE472E0CE0101960E9493058823B9F10D
:100D50000091000210910102B80189E00E94A803ED
:100D6000B8018AE00E94A803B8018BE00E94A803A2
:100D700061E089E10E94EB0261E087E10E94EB0201
:100D800061E088E00E94EB0260E082E00E94EB02FA
:100D900061E083E00E94EB0260E084E00E94EB02ED
:100DA00061E085E00E94EB0260E086E00E94EB02D9
:100DB00061E087E00E94EB026DE472E09ACF6DE59E
:100DC00072E0CE0101960E949305882399F161E0BB
:100DD0008BE00E94EB0261E08AE00E94EB0260E09F
:100DE00089E00E94EB0261E089E10E94EB0260E091
:100DF00087E10E94EB0261E088E00E94EB0260E084
:100E000082E00E94EB0260E083E00E94EB0261E07E
:100E100084E00E94EB0260E085E00E94EB0261E06A
:100E200086E00E94EB0260E087E00E94EB026FE543
:100E300072E05FCF64E772E0CE0101960E949305F5
:100E4000882399F161E08BE00E94EB0260E08AE088
:100E50000E94EB0261E089E00E94EB0260E089E120
:100E60000E94EB0261E087E10E94EB0261E088E012
:100E70000E94EB0261E082E00E94EB0260E083E00E
:100E80000E94EB0260E084E00E94EB0260E085E0FB
:100E90000E94EB0261E086E00E94EB0260E087E0E6
:100EA0000E94EB0266E772E024CF69E872E0CE01AF
:100EB00001960E949305882339F100910002109158
:100EC00001020F3F110509F0E4F4109301020093B1
:100ED0000002B80189E00E94A803B8018AE00E94DC
:100EE000A803B8018BE00E94A803C8010E94120564
:100EF00066E472E08FED92E00E94E0040F5F1F4F06
:100F0000E0CF6BE872E0F5CE6BE972E0CE010196BE
:100F10000E949305882331F1009100021091010293
:100F200002331105E4F01093010200930002B801AE
:100F300089E00E94A803B8018AE00E94A803B801D2
:100F40008BE00E94A803C8010E94120566E472E0CB
:100F50008FED92E00E94E00401501109E1CF6DE9AC
:100F600072E0C7CE6DEA72E0CE0101960E94930551
:100F7000882309F4CECE0E94F404CBCE1F920F92A8
:100F80000FB60F9211240BB60F922F933F934F93EE
:100F90005F936F937F938F939F93AF93BF93EF93E1
:100FA000FF938FED92E00E942F02FF91EF91BF918E
:100FB000AF919F918F917F916F915F914F913F91F1
:100FC0002F910F900BBE0F900FBE0F901F90189592
:100FD0001F920F920FB60F9211240BB60F922F9300
:100FE0008F939F93EF93FF93E091EF02F091F002C4
:100FF0008081E091F502F091F60282FD1DC09081A2
:101000008091F8028F5F8F732091F902821741F06F
:10101000E091F802F0E0E152FD4F958F8093F802E5
:10102000FF91EF919F918F912F910F900BBE0F9099
:101030000FBE0F901F9018958081F2CF1F920F92D4
:101040000FB60F9211240BB60F922F933F934F932D
:101050005F936F937F938F939F93AF93BF93EF9320
:10106000FF938CE793E00E942F02FF91EF91BF91D5
:10107000AF919F918F917F916F915F914F913F9130
:101080002F910F900BBE0F900FBE0F901F901895D1
:101090001F920F920FB60F9211240BB60F922F933F
:1010A0008F939F93EF93FF93E0918C03F0918D03C7
:1010B0008081E0919203F091930382FD1DC09081A5
:1010C000809195038F5F8F7320919603821741F073
:1010D000E0919503F0E0E458FC4F958F80939503E1
:1010E000FF91EF919F918F912F910F900BBE0F90D9
:1010F0000FBE0F901F9018958081F2CF1F920F9214
:101100000FB60F9211242F933F938F939F93AF931A
:10111000BF938091D3029091D402A091D502B09157
:10112000D6023091D20223E0230F2D3758F50196D5
:10113000A11DB11D2093D2028093D3029093D402BB
:10114000A093D502B093D6028091D7029091D80295
:10115000A091D902B091DA020196A11DB11D809330
:10116000D7029093D802A093D902B093DA02BF912C
:10117000AF919F918F913F912F910F900FBE0F9044
:101180001F90189526E8230F0296A11DB11DD2CFFE
:10119000CF92DF92EF92FF920F931F93E82FF92FD8
:1011A00005C0015011092109310961F1908196238F
:1011B0009417B9F305C0015011092109310911F142
:1011C000908196239413F7CFC12CD12CE12CF12CD4
:1011D0000AC08FEFC81AD80AE80AF80A0C151D05CC
:1011E0002E053F0579F080818623841791F36C2DBD
:1011F0007D2D8E2D9F2D1F910F91FF90EF90DF90F1
:10120000CF90089560E070E080E090E01F910F9132
:10121000FF90EF90DF90CF900895EFEDF2E0138212
:10122000128248EE53E060E070E0448355836683A9
:1012300077838CE092E0918380832DEC30E03587DA
:1012400024872CEC30E03787268728EC30E0318B80
:10125000208B29EC30E0338B228B2AEC30E0358B6D
:10126000248B2EEC30E0378B268B118E128E138E52
:10127000148EECE7F3E01382128244835583668375
:1012800077839183808385EC90E09587848784ECD5
:1012900090E09787868780EC90E0918B808B81EC43
:1012A00090E0938B828B82EC90E0958B848B86EC24
:1012B00090E0978B868B118E128E138E148E08956C
:1012C000789484B5826084BD84B5816084BD85B521
:1012D000826085BD85B5816085BD80916E0081602D
:1012E00080936E00109281008091810082608093D3
:1012F00081008091810081608093810080918000D5
:101300008160809380008091B10084608093B100FF
:101310008091B00081608093B000809191008260E4
:1013200080939100809191008160809391008091E1
:1013300090008160809390008091A10082608093F2
:10134000A1008091A10081608093A1008091A00004
:1013500081608093A00080912101826080932101AF
:101360008091210181608093210180912001816021
:101370008093200180917A00846080937A0080912C
:101380007A00826080937A0080917A0081608093F5
:101390007A0080917A00806880937A001092C10070
:1013A0008CE793E00E948A018FED92E00E948A010F
:1013B00061E082E00E94770361E083E00E947703AE
:1013C00061E084E00E94770361E085E00E9477039A
:1013D00061E086E00E94770361E087E00E94770386
:1013E00061E088E00E94770361E089E00E94770372
:1013F00061E08AE00E94770361E08BE00E9477035E
:1014000061E087E10E94770361E089E10E94770350
:10141000CBE0D0E093E2E92EF12C22E7C22E22E0CD
:10142000D22E3CE2A32E32E0B32E0E94D00561E022
:101430008DE00E94770360E08DE00E94EB02CE0118
:101440000197F1F761E08DE00E94EB02C70101977F
:10145000F1F760E08DE00E94EB0260E08CE00E941A
:101460007703F6016491F5018491E82FF0E0EE0F27
:10147000FF1FEA5FFD4F8591949100E412E42FE095
:1014800030E0462F0E94C80861157105810591055D
:1014900029F06F5F7F4F8F4F9F4F9F700E94910A7F
:1014A00023E236E44CE85CE30E94CE0A0E948C0BF7
:1014B0002B013C014092DB025092DC026092DD0283
:1014C0007092DE026BE470E080E090E00E94A40481
:1014D000F3E04F165104BCF40E94F4046FEA72E08A
:1014E0008CE793E00E94E0046FEA72E08FED92E0F7
:1014F0000E94E00464EF71E080E090E00E94A404A8
:101500000E94BE0292CF0E94D00562EC72E08FED85
:1015100092E00E94D604C2010E9412056EEC72E0B5
:10152000E5CFE89409C097FB3EF4909580957095BF
:1015300061957F4F8F4F9F4F9923A9F0F92F96E91F
:10154000BB279395F695879577956795B795F11194
:10155000F8CFFAF4BB0F11F460FF1BC06F5F7F4F31
:101560008F4F9F4F16C0882311F096E911C0772343
:1015700021F09EE8872F762F05C0662371F096E84C
:10158000862F70E060E02AF09A95660F771F881F1B
:10159000DAF7880F9695879597F908950E94E10AE2
:1015A0000C94520B0E94440B38F00E944B0B20F01D
:1015B000952311F00C943B0B0C94410B11240C94CB
:1015C000860B0E94630B70F3959FC1F3950F50E05B
:1015D000551F629FF001729FBB27F00DB11D639FE5
:1015E000AA27F00DB11DAA1F649F6627B00DA11D8B
:1015F000661F829F2227B00DA11D621F739FB00D31
:10160000A11D621F839FA00D611D221F749F3327A0
:10161000A00D611D231F849F600D211D822F762F39
:101620006A2F11249F5750409AF0F1F088234AF016
:10163000EE0FFF1FBB1F661F771F881F9150504082
:10164000A9F79E3F510580F00C943B0B0C94860B40
:101650005F3FE4F3983ED4F3869577956795B79509
:10166000F795E7959F5FC1F7FE2B880F911D969523
:10167000879597F9089597F99F6780E870E060E093
:1016800008959FEF80EC089500240A94161617061B
:1016900018060906089500240A9412161306140663
:1016A00005060895092E0394000C11F4882352F0C6
:1016B000BB0F40F4BF2B11F460FF04C06F5F7F4F7E
:1016C0008F4F9F4F089557FD9058440F551F59F065
:1016D0005F3F71F04795880F97FB991F61F09F3F1F
:1016E00079F087950895121613061406551FF2CF48
:1016F0004695F1DF08C0161617061806991FF1CF98
:1017000086957105610508940895E894BB276627BE
:101710007727CB0197F908950E94930B6894B11134
:101720000C94860B08950E946B0B88F09F5798F0DD
:10173000B92F9927B751B0F0E1F0660F771F881FD6
:10174000991F1AF0BA95C9F714C0B13091F00E94F0
:10175000850BB1E008950C94850B672F782F8827AF
:10176000B85F39F0B93FCCF3869577956795B39517
:10177000D9F73EF490958095709561957F4F8F4F86
:101780009F4F0895A1E21A2EAA1BBB1BFD010DC09D
:10179000AA1FBB1FEE1FFF1FA217B307E407F50721
:1017A00020F0A21BB30BE40BF50B661F771F881FFD
:1017B000991F1A9469F760957095809590959B0193
:1017C000AC01BD01CF010895EE0FFF1F881F8BBF35
:1017D0000790F691E02D19940F931F93CF93DF9309
:1017E0008230910510F482E090E0E0911B04F091CA
:1017F0001C0430E020E0B0E0A0E0309799F421151F
:10180000310509F44AC0281B390B24303105D8F5BD
:101810008A819B816115710589F1FB019383828324
:10182000FE0111C04081518102811381481759077F
:10183000E0F04817590799F4109761F012960C934D
:10184000129713961C933296CF01DF91CF911F917F
:101850000F91089500931B0410931C04F4CF2115DD
:10186000310551F04217530738F0A901DB019A0105
:10187000BD01DF01F801C1CFEF01F9CF90931C0446
:1018800080931B04CDCFFE01E20FF31F8193919350
:101890002250310939832883D7CF20911904309100
:1018A0001A04232B41F42091040230910502309355
:1018B0001A04209319042091020230910302211589
:1018C000310541F42DB73EB7409106025091070211
:1018D000241B350BE0911904F0911A04E217F30769
:1018E000A0F42E1B3F0B2817390778F0AC014E5F90
:1018F0005F4F2417350748F04E0F5F1F50931A04AF
:1019000040931904819391939FCFF0E0E0E09CCF46
:10191000CF93DF930097E9F0FC0132971382128294
:10192000A0911B04B0911C04ED0130E020E0109761
:10193000A1F420813181820F931F209119043091ED
:101940001A042817390709F061C0F0931A04E093CC
:101950001904DF91CF910895EA01CE17DF07E8F56A
:101960004A815B819E0141155105B1F7E901FB8375
:10197000EA8349915991C40FD51FEC17FD0761F413
:10198000808191810296840F951FE9019983888354
:10199000828193819B838A83F0E0E0E012968D91AF
:1019A0009C9113970097B9F52D913C911197CD011A
:1019B0000296820F931F2091190430911A04281760
:1019C000390739F6309751F510921C0410921B0418
:1019D000B0931A04A0931904BCCFD383C28340816F
:1019E0005181840F951FC817D90761F44E5F5F4F6F
:1019F00088819981480F591F518340838A819B8137
:101A0000938382832115310509F0B0CFF0931C0434
:101A1000E0931B049ECFFD01DC01C0CF1382128234
:101A2000D7CF4F925F926F927F928F929F92AF9299
:101A3000BF92CF92DF92EF92FF920F931F93CF93BB
:101A4000DF938C01009799F4CB01DF91CF911F9127
:101A50000F91FF90EF90DF90CF90BF90AF909F904D
:101A60008F907F906F905F904F900C94EC0BFC01E7
:101A7000E60FF71F9C0122503109E217F30708F423
:101A8000AEC0D901CD91DC911197C617D70720F1CF
:101A9000C530D10578F0CE0104978617970750F02E
:101AA000C61BD70B2297C193D1936D937C93CF0123
:101AB0000E94880CC801DF91CF911F910F91FF9078
:101AC000EF90DF90CF90BF90AF909F908F907F90DE
:101AD0006F905F904F9008955B01AC1ABD0A4C0166
:101AE0008C0E9D1EA0911B04B0911C04512C412C06
:101AF000F12CE12C109731F58091190490911A0482
:101B00008815990509F05CC04616570608F058C0BC
:101B10008091020290910302009741F48DB79EB725
:101B20004091060250910702841B950BE817F907B4
:101B300008F055C0F0931A04E0931904F901718379
:101B40006083B8CF8D919C91119712966C901297EB
:101B500013967C901397A815B90559F56C0142E0CE
:101B6000C40ED11CCA14DB0420F1AC014A195B0974
:101B7000DA011296159780F0628273825183408356
:101B8000D9016D937C93E114F10471F0D7011396A0
:101B9000FC93EE9312978ECF22968C0F9D1FF90126
:101BA00091838083F301EFCFF0931C04E0931B0437
:101BB00081CF4816590608F42C017D01D3019ACF34
:101BC000CB010E94EC0B7C01009749F0AE01B801FB
:101BD0000E94F20DC8010E94880C87016BCF10E0B3
:101BE00000E068CFFB01DC0102C001900D92415082
:101BF0005040D8F70895FB01DC018D9101908019C8
:101C00000110D9F3990B0895FB01DC0101900D92AD
:0A1C10000020E1F70895F894FFCFDB
:101C1A00960000001D048000000000005102B1017E
:101C2A00DE019E020F02ED0101020D0A00446574F5
:101C3A00656E69646F0031004176616E7A616E6427
:101C4A006F2076656C6F6369646164206163747583
:101C5A00616C3A2020002070776D00320052657462
:101C6A00726F63656469656E646F2020003300419A
:101C7A0076616E7A616E646F20697A7175696572D0
:101C8A006461200034004176616E7A616E646F206F
:101C9A00646572656368612000350056656C6F6320
:101CAA006964616420616C74612000360056656C59
:101CBA006F63696461642062616A61200037004C65
:101CCA006C65676F2061206C61206D6574612121EC
:101CDA00210044697374616E6369613A200020636C
:021CEA006D008B
:00000001FF
