:100000000C9435010C9466010C9466010C94660105
:100010000C9466010C9466010C9466010C946601C4
:100020000C9466010C9466010C9466010C946601B4
:100030000C9466010C9466010C9466010C946601A4
:100040000C9466010C9466010C9466010C94660194
:100050000C9466010C9466010C9466010C94B30434
:100060000C9466010C947D040C9453040C9466016A
:100070000C9466010C9466010C9466010C94660164
:100080000C9466010C9466010C9466010C94660154
:100090000C941D040C94F3030C9466010C946601FB
:1000A0000C9466010C9466010C9466010C94660134
:1000B0000C9466010C9466010C9466010C94660124
:1000C0000C9466010C9466010C9466010C94660114
:1000D0000C9466010C9466010C9466010C94660104
:1000E0000C9466010C9445030C94FE020C941403CA
:1000F0000C944B030C9442050C943D030C94ED01BD
:100100000C94DF010C941C030C9418030C941F0333
:100110000C9441030C94CB010C942F020C94F90223
:100120000C9437030C9425030C9433030C948F0127
:100130000C9410030C94BC010C942F030C944F03EB
:100140000C9429030C947C0200000A0B02090C0D8C
:100150000E0807030401000000000000000000007A
:10016000000000000000000000000000000000008F
:10017000000000001211100000000000000000004C
:10018000000000000000000000000000000000006F
:1001900020002300260029002C002F00320000013F
:1001A00000000301060109010000220025002800CB
:1001B0002B002E003100340002010000050108016F
:1001C0000B0100002100240027002A002D00300030
:1001D000330001010000040107010A0105050505BE
:1001E000070508080808020202020A0A08080404AF
:1001F00004040101010101010101030303030303DD
:100200000303040707070C0C0C0C0C0C0C0C02026B
:10021000020206060606060606060B0B0B0B0B0B68
:100220000B0B0102102020080810204010204080F5
:1002300002010201080402010102040810204080AA
:100240008040201008040201800402018040201038
:100250000804020108040201010204081020408081
:100260000102040810204080420511241FBECFEF78
:10027000D1E2DEBFCDBF00E00CBF23E0ACE3B2E0D3
:1002800001C01D92A738B207E1F712E0A0E0B2E08A
:10029000ECEFF5E100E00BBF02C007900D92AC332C
:1002A000B107D9F711E0C5E3D1E000E006C021971E
:1002B0000109802FFE010E94D508C433D10780E0D8
:1002C0000807A9F70E9495050C94FC0A0C940000FD
:1002D000FC01A089B18982E08C93A485B5851C922C
:1002E000A685B7858FEC8C93108EA489B58986E09E
:1002F0008C93A289B3898C9180618C93A289B389F4
:100300008C9188608C93A289B3898C9180688C933E
:100310000288F389E02D80818F7D80830895AF92DC
:10032000BF92CF92DF92EF92FF920F931F93CF93E2
:10033000DF936C017B018B01040F151FEB015E0144
:10034000AE18BF08C017D10759F06991D601ED91D9
:10035000FC910190F081E02DC6011995892B79F768
:10036000C501DF91CF911F910F91FF90EF90DF902A
:10037000CF90BF90AF900895FC01538D448D252FF1
:1003800030E0842F90E0821B930B541710F0CF962F
:10039000089501970895FC01918D828D981761F061
:1003A000A28DAE0FBF2FB11D5D968C91928D9F5F78
:1003B0009F73928F90E008958FEF9FEF0895FC0157
:1003C000918D828D981731F0828DE80FF11D858D0A
:1003D00090E008958FEF9FEF0895FC01918D228D9D
:1003E000892F90E0805C9F4F821B91098F73992722
:1003F000089589E492E00E94ED0121E0892B09F43F
:1004000020E0822F089586EE92E00E94ED0121E027
:10041000892B09F420E0822F0895FC01A48DA80FF8
:10042000B92FB11DA35ABF4F2C91848D90E0019636
:100430008F739927848FA689B7892C93A089B18956
:100440008C91837080648C93938D848D981306C0F7
:100450000288F389E02D80818F7D80830895EF925B
:10046000FF920F931F93CF93DF93EC0181E0888F6E
:100470009B8D8C8D98131AC0E889F989808185FF3E
:1004800015C09FB7F894EE89FF896083E889F989E0
:1004900080818370806480839FBF81E090E0DF91E2
:1004A000CF911F910F91FF90EF900895F62E0B8D35
:1004B00010E00F5F1F4F0F731127E02E8C8D8E11F0
:1004C0000CC00FB607FCFACFE889F989808185FF57
:1004D000F5CFCE010E940D02F1CFEB8DEC0FFD2F79
:1004E000F11DE35AFF4FF0829FB7F8940B8FEA8912
:1004F000FB8980818062CFCFCF93DF93EC01888D21
:100500008823B9F0AA89BB89E889F9898C9185FD8E
:1005100003C0808186FD0DC00FB607FCF7CF8C911C
:1005200085FFF2CF808185FFEDCFCE010E940D02C5
:10053000E9CFDF91CF91089580E090E0892B29F0F9
:100540000E94030281110E94000080E090E0892B4C
:1005500029F00E94F90181110E94000080E090E0E2
:10056000892B49F080E090E0892B29F00E9400005F
:1005700081110E94000080E090E0892B49F080E02A
:1005800090E0892B29F00E94000081110C9400005A
:100590000895282F30E0F901E85BFE4F9491F901AE
:1005A000EE5DFD4F449124523E4FF90124912223E8
:1005B00009F435C0992311F191509231F8F4E92FE3
:1005C000F0E08827E951FD4F8F4F0C94D5081803B0
:1005D0001C03F90210031403FE021F032503290361
:1005E0002F03330337033D034103FE0245034B034F
:1005F0004F03809180008F7780938000E22FF0E09E
:10060000EE0FFF1FE855FE4FA591B4918FB7F894F8
:10061000EC91611148C040954E234C938FBF0895D3
:10062000809180008F7DE8CF80918000877FE4CF2C
:1006300084B58F7784BDE2CF84B58F7DFBCF809169
:10064000B0008F778093B000D9CF8091B0008F7DBC
:10065000F9CF809190008F7780939000CFCF8091D9
:1006600090008F7DF9CF80919000877FF5CF8091AA
:10067000A0008F778093A000C1CF8091A0008F7DD4
:10068000F9CF8091A000877FF5CF809120018F77EF
:1006900080932001B3CF809120018F7DF9CF80918D
:1006A0002001877FF5CF4E2BB8CF3FB7F8948091CC
:1006B000410290914202A0914302B091440226B5BA
:1006C000A89B05C02F3F19F00196A11DB11D3FBF8A
:1006D000BA2FA92F982F8827BC01CD01620F711D59
:1006E000811D911D42E0660F771F881F991F4A9553
:1006F000D1F708958F929F92AF92BF92CF92DF92DF
:10070000EF92FF924B015C010E9455036B017C014B
:100710000E9455036C197D098E099F09683E73403C
:1007200081059105A8F321E0821A9108A108B1087A
:1007300088EEC80E83E0D81EE11CF11C81149104E0
:10074000A104B10429F7FF90EF90DF90CF90BF9004
:10075000AF909F908F900895FB0101900020E9F7E2
:100760003197AF01461B570B0C948F01FC0124817C
:100770003581232B39F421E0FB018081882349F066
:1007800020E007C0808191810E94EC0A21E0892B42
:10079000B9F7822F08950F931F93CF93DF93EC0146
:1007A00088819981009759F02A813B812617370764
:1007B00030F081E0DF91CF911F910F9108958B016F
:1007C0006F5F7F4F0E94020A009759F099838883D8
:1007D0001B830A832C813D81232B59F7FC01108256
:1007E000E8CF80E0E7CF1F920F920FB60F9211244F
:1007F0000BB60F922F933F934F935F936F937F931B
:100800008F939F93AF93BF93EF93FF9389E492E00D
:100810000E940D02FF91EF91BF91AF919F918F9137
:100820007F916F915F914F913F912F910F900BBEF0
:100830000F900FBE0F901F9018951F920F920FB63A
:100840000F9211240BB60F922F938F939F93EF93D8
:10085000FF93E0915902F0915A028081E0915F028A
:10086000F091600282FD1DC09081809162028F5FD5
:100870008F7320916302821741F0E0916202F0E0F1
:10088000E75BFD4F958F80936202FF91EF919F91FF
:100890008F912F910F900BBE0F900FBE0F901F9056
:1008A00018958081F2CF1F920F920FB60F921124EC
:1008B0000BB60F922F933F934F935F936F937F935A
:1008C0008F939F93AF93BF93EF93FF9386EE92E046
:1008D0000E940D02FF91EF91BF91AF919F918F9177
:1008E0007F916F915F914F913F912F910F900BBE30
:1008F0000F900FBE0F901F9018951F920F920FB67A
:100900000F9211240BB60F922F938F939F93EF9317
:10091000FF93E091F602F091F7028081E091FC02F2
:10092000F091FD0282FD1DC090818091FF028F5FDA
:100930008F7320910003821741F0E091FF02F0E0F5
:10094000EA51FD4F958F8093FF02FF91EF919F91A8
:100950008F912F910F900BBE0F900FBE0F901F9095
:1009600018958081F2CF1F920F920FB60F9211242B
:100970002F933F938F939F93AF93BF9380913D02AB
:1009800090913E02A0913F02B091400230913C0212
:1009900023E0230F2D3758F50196A11DB11D20939B
:1009A0003C0280933D0290933E02A0933F02B0939D
:1009B00040028091410290914202A0914302B09185
:1009C00044020196A11DB11D809341029093420201
:1009D000A0934302B0934402BF91AF919F918F9136
:1009E0003F912F910F900FBE0F901F90189526E802
:1009F000230F0296A11DB11DD2CFCF92DF92EF92AD
:100A0000FF920F931F93E82FF92F05C00150110992
:100A10002109310961F1908196239417B9F305C03A
:100A2000015011092109310911F190819623941384
:100A3000F7CFC12CD12CE12CF12C0AC08FEFC81AB2
:100A4000D80AE80AF80A0C151D052E053F0579F0AD
:100A500080818623841791F36C2D7D2D8E2D9F2D03
:100A60001F910F91FF90EF90DF90CF90089560E07D
:100A700070E080E090E01F910F91FF90EF90DF9089
:100A8000CF900895E9E4F2E01382128248EE53E039
:100A900060E070E044835583668377838AE092E068
:100AA000918380832DEC30E0358724872CEC30E077
:100AB0003787268728EC30E0318B208B29EC30E01B
:100AC000338B228B2AEC30E0358B248B2EEC30E0FC
:100AD000378B268B118E128E138E148EE6EEF2E07B
:100AE0001382128244835583668377839183808344
:100AF00085EC90E09587848784EC90E097878687E3
:100B000080EC90E0918B808B81EC90E0938B828BDA
:100B100082EC90E0958B848B86EC90E0978B868BB3
:100B2000118E128E138E148E0895CF93DF93CDB74E
:100B3000DEB7A3970FB6F894DEBF0FBECDBF789493
:100B400084B5826084BD84B5816084BD85B58260D2
:100B500085BD85B5816085BD80916E008160809383
:100B60006E001092810080918100826080938100EC
:100B700080918100816080938100809180008160FC
:100B8000809380008091B10084608093B100809157
:100B9000B00081608093B00080919100826080936A
:100BA00091008091910081608093910080919000EC
:100BB0008160809390008091A10082608093A10069
:100BC0008091A10081608093A1008091A00081604C
:100BD0008093A00080912101826080932101809107
:100BE00021018160809321018091200181608093A7
:100BF000200180917A00846080937A0080917A004D
:100C0000826080937A0080917A00816080937A007C
:100C100080917A00806880937A001092C10086EEFD
:100C200092E00E94680189E492E00E94680161E319
:100C300089E492E00E942F0268E172E089E492E088
:100C40000E94AC0353E0A52EB12C63E2862E912CBA
:100C500079EE272E71E0372EEAE04E2E512C612CD2
:100C6000712C1A8219821C821B821E821D8270E0E6
:100C700060E0CE0101960E94CB0329813A81811167
:100C800033C02115310519F0C9010E9479091A8272
:100C900019821E821D821C821B8286EE92E00E94B7
:100CA000ED011816190644F586EE92E00E94CB017C
:100CB0008AA31BA2ED80FE808FEFE81AF80AB70125
:100CC000CE0101960E94CB03882339F329813A8112
:100CD0008D819E81BE016E5D7F4F820F931F0E94AA
:100CE000F50AFE82ED82D9CF1E821D826AE172E092
:100CF000C9010E94F50AD1CF6AE172E0CE010196E6
:100D00000E94B603882309F4E0C062E370E080E04B
:100D100090E00E947A0389819A81009709F0E4C0EB
:100D200062E370E080E090E00E947A03EEE2F2E09D
:100D30002491E8EEF1E08491882399F090E0880F07
:100D4000991FFC01EE53FE4FA591B491FC01E855AB
:100D5000FE4F859194918FB7F8949C91292B2C93F9
:100D60008FBF60E08CE00E94C902C5010197F1F7D6
:100D700061E08CE00E94C902C4010197F1F760E0D4
:100D80008CE00E94C902EFE2F2E02491F10184912B
:100D90008823C1F090E0880F991FFC01EE53FE4FAD
:100DA000A591B491FC01E855FE4F859194914FB700
:100DB000F8943C91209532233C93FC01308123230D
:100DC00020834FBFEFE2F2E06491F1018491E82FBC
:100DD000F0E0EE0FFF1FE257FE4F8591949100E483
:100DE00012E42FE030E0462F0E94FD0461157105EA
:100DF0008105910529F06F5F7F4F8F4F9F4F9F7047
:100E00000E9482072EEE35E24DE85CE30E94BF07A8
:100E10000E947D086B017C01C0924502D09246027F
:100E2000E0924702F092480269E170E080E090E0D1
:100E30000E947A03C6016EE272E01816190694F158
:100E40000D2C000CEE08FF08892B09F450C06DE250
:100E500089E492E00E942F0222273327A9012C194E
:100E60003D094E095F0919A27E01F1E2EF0EF11C66
:100E7000CA01B901A30192010E94B308605DF701A4
:100E800062937F01211531054105510589F7BF01A5
:100E9000EF2B99F568E172E089E492E00E94AC03DF
:100EA0006BE172E086EE92E00E94AC0368E172E0D2
:100EB00086EE92E00E94AC0364EF71E080E090E087
:100EC0000E947A030E949C02CCCE4D815E81698192
:100ED0007A8189E492E00E948F0168E172E089E4FE
:100EE00092E00E94AC0311CF0E94790919CF19A298
:100EF000F0E3F8A3BE01605E7F4F89E492E00E94B8
:100F0000AC03C8CFE89409C097FB3EF49095809558
:100F1000709561957F4F8F4F9F4F9923A9F0F92FBF
:100F200096E9BB279395F695879577956795B7953D
:100F3000F111F8CFFAF4BB0F11F460FF1BC06F5F23
:100F40007F4F8F4F9F4F16C0882311F096E911C035
:100F5000772321F09EE8872F762F05C0662371F056
:100F600096E8862F70E060E02AF09A95660F771F6A
:100F7000881FDAF7880F9695879597F908950E944C
:100F8000D2070C9443080E94350838F00E943C08B0
:100F900020F0952311F00C942C080C9432081124A5
:100FA0000C9477080E94540870F3959FC1F3950F35
:100FB00050E0551F629FF001729FBB27F00DB11DDD
:100FC000639FAA27F00DB11DAA1F649F6627B00D6D
:100FD000A11D661F829F2227B00DA11D621F739F56
:100FE000B00DA11D621F839FA00D611D221F749F64
:100FF0003327A00D611D231F849F600D211D822FAB
:10100000762F6A2F11249F5750409AF0F1F08823D1
:101010004AF0EE0FFF1FBB1F661F771F881F9150FE
:101020005040A9F79E3F510580F00C942C080C9479
:1010300077085F3FE4F3983ED4F3869577956795FC
:10104000B795F795E7959F5FC1F7FE2B880F911D28
:101050009695879597F9089597F99F6780E870E0CE
:1010600060E008959FEF80EC089500240A9416161E
:10107000170618060906089500240A941216130686
:10108000140605060895092E0394000C11F4882314
:1010900052F0BB0F40F4BF2B11F460FF04C06F5F30
:1010A0007F4F8F4F9F4F089557FD9058440F551F06
:1010B00059F05F3F71F04795880F97FB991F61F0DA
:1010C0009F3F79F087950895121613061406551F51
:1010D000F2CF4695F1DF08C0161617061806991FBD
:1010E000F1CF86957105610508940895E894BB27B2
:1010F00066277727CB0197F908950E9484086894A2
:10110000B1110C94770808950E945C0888F09F57ED
:1011100098F0B92F9927B751B0F0E1F0660F771F1B
:10112000881F991F1AF0BA95C9F714C0B13091F011
:101130000E947608B1E008950C947608672F782F06
:101140008827B85F39F0B93FCCF3869577956795D6
:10115000B395D9F73EF490958095709561957F4F42
:101160008F4F9F4F0895A1E21A2EAA1BBB1BFD01B2
:101170000DC0AA1FBB1FEE1FFF1FA217B307E40776
:10118000F50720F0A21BB30BE40BF50B661F771FCE
:10119000881F991F1A9469F76095709580959095AE
:1011A0009B01AC01BD01CF010895EE0FFF1F881F09
:1011B0008BBF0790F691E02D19940F931F93CF9357
:1011C000DF938230910510F482E090E0E091850396
:1011D000F091860330E020E0B0E0A0E0309799F491
:1011E0002115310509F44AC0281B390B243031057B
:1011F000D8F58A819B816115710589F1FB01938383
:101200008283FE0111C04081518102811381481700
:101210005907E0F04817590799F4109761F01296B2
:101220000C93129713961C933296CF01DF91CF91B6
:101230001F910F9108950093850310938603F4CFB7
:101240002115310551F04217530738F0A901DB0190
:101250009A01BD01DF01F801C1CFEF01F9CF9093F1
:10126000860380938503CDCFFE01E20FF31F8193A8
:1012700091932250310939832883D7CF209183035A
:1012800030918403232B41F4209102023091030218
:101290003093840320938303209100023091010254
:1012A0002115310541F42DB73EB74091040250910C
:1012B0000502241B350BE0918303F0918403E217B0
:1012C000F307A0F42E1B3F0B2817390778F0AC0169
:1012D0004E5F5F4F2417350748F04E0F5F1F509346
:1012E000840340938303819391939FCFF0E0E0E0E8
:1012F0009CCFCF93DF930097E9F0FC0132971382E4
:101300001282A0918503B0918603ED0130E020E0C8
:101310001097A1F420813181820F931F20918303C4
:10132000309184032817390709F061C0F0938403D2
:10133000E0938303DF91CF910895EA01CE17DF0791
:10134000E8F54A815B819E0141155105B1F7E9013C
:10135000FB83EA8349915991C40FD51FEC17FD0710
:1013600061F4808191810296840F951FE901998330
:101370008883828193819B838A83F0E0E0E01296E8
:101380008D919C9113970097B9F52D913C911197F0
:10139000CD010296820F931F209183033091840325
:1013A0002817390739F6309751F5109286031092B5
:1013B0008503B0938403A0938303BCCFD383C283FC
:1013C00040815181840F951FC817D90761F44E5F82
:1013D0005F4F88819981480F591F518340838A81CB
:1013E0009B81938382832115310509F0B0CFF0935F
:1013F0008603E09385039ECFFD01DC01C0CF1382FD
:101400001282D7CF4F925F926F927F928F929F926C
:10141000AF92BF92CF92DF92EF92FF920F931F9302
:10142000CF93DF938C01009799F4CB01DF91CF919B
:101430001F910F91FF90EF90DF90CF90BF90AF90F2
:101440009F908F907F906F905F904F900C94DD08ED
:10145000FC01E60FF71F9C0122503109E217F30748
:1014600008F4AEC0D901CD91DC911197C617D7070A
:1014700020F1C530D10578F0CE0104978617970783
:1014800050F0C61BD70B2297C193D1936D937C93D9
:10149000CF010E947909C801DF91CF911F910F916F
:1014A000FF90EF90DF90CF90BF90AF909F908F9084
:1014B0007F906F905F904F9008955B01AC1ABD0ACA
:1014C0004C018C0E9D1EA0918503B0918603512C7A
:1014D000412CF12CE12C109731F5809183039091F0
:1014E00084038815990509F05CC04616570608F074
:1014F00058C08091000290910102009741F48DB78D
:101500009EB74091040250910502841B950BE81789
:10151000F90708F055C0F0938403E0938303F901C1
:1015200071836083B8CF8D919C91119712966C90C6
:10153000129713967C901397A815B90559F56C016D
:1015400042E0C40ED11CCA14DB0420F1AC014A19DC
:101550005B09DA011296159780F0628273825183DB
:101560004083D9016D937C93E114F10471F0D701AC
:101570001396FC93EE9312978ECF22968C0F9D1F9D
:10158000F90191838083F301EFCFF0938603E09319
:10159000850381CF4816590608F42C017D01D3013B
:1015A0009ACFCB010E94DD087C01009749F0AE0183
:1015B000B8010E94E30AC8010E94790987016BCF34
:1015C00010E000E068CFFB01DC0102C001900D9249
:1015D00041505040D8F70895FB01DC018D910190F6
:1015E00080190110D9F3990B0895FB01DC010190DA
:0C15F0000D920020E1F70895F894FFCF61
:1015FC00000087038000000000002F028F01BC0157
:10160C007C02ED01CB01DF010D0A004C6C65676FAC
:10161C002061206C61206D65746121212100456E73
:0C162C00206D6F76696D69656E746F004B
:00000001FF
