:100000000C9483000C94B4000C94B4000C94B400D1
:100010000C94B4000C94B4000C94B4000C94B40090
:100020000C94B4000C94B4000C94B4000C94B40080
:100030000C94B4000C94B4000C94B4000C94B40070
:100040000C94B4000C94B4000C94B4000C94B40060
:100050000C94B4000C94B4000C94B4000C940703FA
:100060000C94B4000C94D1020C94A7020C94B4002C
:100070000C94B4000C94B4000C94B4000C94B40030
:100080000C94B4000C94B4000C94B4000C94B40020
:100090000C9471020C9447020C94B4000C94B400BC
:1000A0000C94B4000C94B4000C94B4000C94B40000
:1000B0000C94B4000C94B4000C94B4000C94B400F0
:1000C0000C94B4000C94B4000C94B4000C94B400E0
:1000D0000C94B4000C94B4000C94B4000C94B400D0
:1000E0000C94B4000C94DD000C9485010C94350143
:1000F0000C9443010C94D2010C9451030C942101F3
:100100000C941201510311241FBECFEFD1E2DEBFC8
:10011000CDBF00E00CBF23E0ACE1B2E001C01D9216
:10012000A336B207E1F712E0A0E0B2E0EEE5FDE0B1
:1001300000E00BBF02C007900D92AC31B107D9F7B8
:1001400010E0C3E8D0E000E006C021970109802F4D
:10015000FE010E948F04C238D10780E00807A9F78A
:100160000E94A4030C94AD060C940000FC01A0892D
:10017000B18982E08C93A485B5851C92A685B7854C
:100180008FEC8C93108EA489B58986E08C93A2891C
:10019000B3898C9180618C93A289B3898C9188609A
:1001A0008C93A289B3898C9180688C930288F3899F
:1001B000E02D80818F7D80830895AF92BF92CF9292
:1001C000DF92EF92FF920F931F93CF93DF936C0117
:1001D0007B018B01040F151FEB015E01AE18BF08F8
:1001E000C017D10759F06991D601ED91FC910190AA
:1001F000F081E02DC6011995892B79F7C501DF91B2
:10020000CF911F910F91FF90EF90DF90CF90BF9013
:10021000AF90089542E050E068E172E085E292E03C
:100220000C94DD00FC01538D448D252F30E0842F8C
:1002300090E0821B930B541710F0CF96089501970E
:100240000895FC01918D828D981761F0A28DAE0FFB
:10025000BF2FB11D5D968C91928D9F5F9F73928F82
:1002600090E008958FEF9FEF0895FC01918D828DAE
:10027000981731F0828DE80FF11D858D90E008957B
:100280008FEF9FEF0895FC01918D228D892F90E0D3
:10029000805C9F4F821B91098F739927089585E297
:1002A00092E00E94430121E0892B09F420E0822F93
:1002B000089582EC92E00E94430121E0892B09F429
:1002C00020E0822F0895FC01A48DA80FB92FB11D45
:1002D000A35ABF4F2C91848D90E001968F7399277C
:1002E000848FA689B7892C93A089B1898C9183705A
:1002F00080648C93938D848D981306C00288F38953
:10030000E02D80818F7D80830895EF92FF920F937F
:100310001F93CF93DF93EC0181E0888F9B8D8C8DB1
:1003200098131AC0E889F989808185FF15C09FB7A5
:10033000F894EE89FF896083E889F9898081837068
:10034000806480839FBF81E090E0DF91CF911F9117
:100350000F91FF90EF900895F62E0B8D10E00F5F38
:100360001F4F0F731127E02E8C8D8E110CC00FB60E
:1003700007FCFACFE889F989808185FFF5CFCE01A6
:100380000E946301F1CFEB8DEC0FFD2FF11DE35ABD
:10039000FF4FF0829FB7F8940B8FEA89FB89808129
:1003A0008062CFCFCF93DF93EC01888D8823B9F0A3
:1003B000AA89BB89E889F9898C9185FD03C0808170
:1003C00086FD0DC00FB607FCF7CF8C9185FFF2CFED
:1003D000808185FFEDCFCE010E946301E9CFDF91DF
:1003E000CF91089580E090E0892B29F00E94590177
:1003F00081110E94000080E090E0892B29F00E948A
:100400004F0181110E94000080E090E0892B49F0AB
:1004100080E090E0892B29F00E94000081110E9469
:10042000000080E090E0892B49F080E090E0892B8B
:1004300029F00E94000081110C94000008950F9390
:100440001F93CF93DF93EC0188819981009759F036
:100450002A813B812617370730F081E0DF91CF9169
:100460001F910F9108958B016F5F7F4F0E94BC0514
:10047000009759F0998388831B830A832C813D81DF
:10048000232B59F7FC011082E8CF80E0E7CF1F92C1
:100490000F920FB60F9211240BB60F922F933F932A
:1004A0004F935F936F937F938F939F93AF93BF937C
:1004B000EF93FF9385E292E00E946301FF91EF9139
:1004C000BF91AF919F918F917F916F915F914F916C
:1004D0003F912F910F900BBE0F900FBE0F901F906A
:1004E00018951F920F920FB60F9211240BB60F9210
:1004F0002F938F939F93EF93FF93E0913502F091A9
:1005000036028081E0913B02F0913C0282FD1DC0E9
:10051000908180913E028F5F8F7320913F028217FE
:1005200041F0E0913E02F0E0EB5DFD4F958F80934E
:100530003E02FF91EF919F918F912F910F900BBEF3
:100540000F900FBE0F901F9018958081F2CF1F92D1
:100550000F920FB60F9211240BB60F922F933F9369
:100560004F935F936F937F938F939F93AF93BF93BB
:10057000EF93FF9382EC92E00E946301FF91EF9171
:10058000BF91AF919F918F917F916F915F914F91AB
:100590003F912F910F900BBE0F900FBE0F901F90A9
:1005A00018951F920F920FB60F9211240BB60F924F
:1005B0002F938F939F93EF93FF93E091D202F0914B
:1005C000D3028081E091D802F091D90282FD1DC052
:1005D00090818091DB028F5F8F732091DC02821704
:1005E00041F0E091DB02F0E0EE53FD4F958F8093F8
:1005F000DB02FF91EF919F918F912F910F900BBE96
:100600000F900FBE0F901F9018958081F2CF1F9210
:100610000F920FB60F9211242F933F938F939F93B6
:10062000AF93BF938091210290912202A091230267
:10063000B09124023091200223E0230F2D3758F58A
:100640000196A11DB11D2093200280932102909359
:100650002202A0932302B093240280911C02909165
:100660001D02A0911E02B0911F020196A11DB11D95
:1006700080931C0290931D02A0931E02B0931F0250
:10068000BF91AF919F918F913F912F910F900FBE8E
:100690000F901F90189526E8230F0296A11DB11DFB
:1006A000D2CFE5E2F2E01382128248EE53E060E03E
:1006B00070E044835583668377838AE092E0918378
:1006C00080832DEC30E0358724872CEC30E03787B1
:1006D000268728EC30E0318B208B29EC30E0338BFF
:1006E000228B2AEC30E0358B248B2EEC30E0378BDC
:1006F000268B118E128E138E148EE2ECF2E0138292
:10070000128244835583668377839183808385EC4B
:1007100090E09587848784EC90E09787868780ECCB
:1007200090E0918B808B81EC90E0938B828B82ECBC
:1007300090E0958B848B86EC90E0978B868B118E66
:10074000128E138E148E0895CF93DF9300D000D0B5
:100750001F921F92CDB7DEB7789484B5826084BDB6
:1007600084B5816084BD85B5826085BD85B58160B5
:1007700085BD80916E00816080936E001092810033
:1007800080918100826080938100809181008160EE
:1007900080938100809180008160809380008091AF
:1007A000B10084608093B1008091B000816080933B
:1007B000B0008091910082608093910080919100BF
:1007C000816080939100809190008160809390007F
:1007D0008091A10082608093A1008091A10081603E
:1007E0008093A1008091A00081608093A0008091FF
:1007F0002101826080932101809121018160809399
:1008000021018091200181608093200180917A00F4
:10081000846080937A0080917A00826080937A006D
:1008200080917A00816080937A0080917A0080685C
:1008300080937A001092C10082EC92E00E94B60090
:1008400085E292E00E94B60061E385E292E00E94B8
:1008500085010E940A011A8219821C821B821E8253
:100860001D8270E060E0CE0101960E941F02298186
:100870003A81811132C02115310519F0C9010E9458
:1008800033051A8219821E821D821C821B8282EC11
:1008900092E00E944301181619063CF582EC92E0A2
:1008A0000E9421018F8318860D811E810F5F1F4FCB
:1008B000B801CE0101960E941F02882341F32981CD
:1008C0003A818D819E81BE01695F7F4F820F931FA8
:1008D0000E94A6061E830D83DACF1E821D826AE166
:1008E00072E0C9010E94A606D2CF4D815E814115FA
:1008F000510561F069817A81FB018081882331F0A3
:1009000085E292E00E94DD000E940A0189819A81BD
:10091000009711F00E9433050E94F2019CCFEE0F68
:10092000FF1F881F8BBF0790F691E02D19940F933E
:100930001F93CF93DF938230910510F482E090E013
:10094000E0916103F091620330E020E0B0E0A0E0CC
:10095000309799F42115310509F44AC0281B390B49
:1009600024303105D8F58A819B816115710589F1A3
:10097000FB0193838283FE0111C04081518102817A
:10098000138148175907E0F04817590799F4109751
:1009900061F012960C93129713961C933296CF0126
:1009A000DF91CF911F910F910895009361031093F0
:1009B0006203F4CF2115310551F04217530738F087
:1009C000A901DB019A01BD01DF01F801C1CFEF01EF
:1009D000F9CF9093620380936103CDCFFE01E20FC4
:1009E000F31F819391932250310939832883D7CF04
:1009F00020915F0330916003232B41F42091020288
:100A0000309103023093600320935F032091000232
:100A1000309101022115310541F42DB73EB74091C7
:100A2000040250910502241B350BE0915F03F09105
:100A30006003E217F307A0F42E1B3F0B28173907BA
:100A400078F0AC014E5F5F4F2417350748F04E0F2A
:100A50005F1F5093600340935F03819391939FCFF7
:100A6000F0E0E0E09CCFCF93DF930097E9F0FC014A
:100A7000329713821282A0916103B0916203ED015B
:100A800030E020E01097A1F420813181820F931F84
:100A900020915F03309160032817390709F061C086
:100AA000F0936003E0935F03DF91CF910895EA0133
:100AB000CE17DF07E8F54A815B819E01411551059C
:100AC000B1F7E901FB83EA8349915991C40FD51F1E
:100AD000EC17FD0761F4808191810296840F951FC8
:100AE000E90199838883828193819B838A83F0E0E3
:100AF000E0E012968D919C9113970097B9F52D9196
:100B00003C911197CD010296820F931F20915F03B4
:100B1000309160032817390739F6309751F5109254
:100B2000620310926103B0936003A0935F03BCCF94
:100B3000D383C28340815181840F951FC817D90781
:100B400061F44E5F5F4F88819981480F591F51832F
:100B500040838A819B81938382832115310509F02B
:100B6000B0CFF0936203E09361039ECFFD01DC01FF
:100B7000C0CF13821282D7CF4F925F926F927F9233
:100B80008F929F92AF92BF92CF92DF92EF92FF929D
:100B90000F931F93CF93DF938C01009799F4CB01B0
:100BA000DF91CF911F910F91FF90EF90DF90CF9049
:100BB000BF90AF909F908F907F906F905F904F907D
:100BC0000C949704FC01E60FF71F9C012250310999
:100BD000E217F30708F4AEC0D901CD91DC9111976B
:100BE000C617D70720F1C530D10578F0CE0104979C
:100BF0008617970750F0C61BD70B2297C193D19346
:100C00006D937C93CF010E943305C801DF91CF9192
:100C10001F910F91FF90EF90DF90CF90BF90AF901A
:100C20009F908F907F906F905F904F9008955B01A1
:100C3000AC1ABD0A4C018C0E9D1EA0916103B091AF
:100C40006203512C412CF12CE12C109731F580914D
:100C50005F03909160038815990509F05CC0461602
:100C6000570608F058C08091000290910102009749
:100C700041F48DB79EB74091040250910502841B48
:100C8000950BE817F90708F055C0F0936003E0935F
:100C90005F03F90171836083B8CF8D919C911197A7
:100CA00012966C90129713967C901397A815B9051D
:100CB00059F56C0142E0C40ED11CCA14DB0420F1CA
:100CC000AC014A195B09DA011296159780F062822D
:100CD000738251834083D9016D937C93E114F104B5
:100CE00071F0D7011396FC93EE9312978ECF229654
:100CF0008C0F9D1FF90191838083F301EFCFF09357
:100D00006203E093610381CF4816590608F42C0171
:100D10007D01D3019ACFCB010E9497047C010097FB
:100D200049F0AE01B8010E949D06C8010E9433053A
:100D300087016BCF10E000E068CFFB01DC0102C04F
:100D400001900D9241505040D8F70895FB01DC010D
:0E0D500001900D920020E1F70895F894FFCF76
:100D5E00000063038000000000008501DD00120129
:0C0D6E00D2014301210135010D0A0000F3
:00000001FF
